{
  "address": "0x6314b8614a589e8e1F6c2757885cbcbADC7bd21E",
  "abi": [
    {
      "inputs": [
        {
          "internalType": "address",
          "name": "priceFeedAddress",
          "type": "address"
        }
      ],
      "stateMutability": "nonpayable",
      "type": "constructor"
    },
    {
      "stateMutability": "payable",
      "type": "fallback"
    },
    {
      "inputs": [
        {
          "internalType": "address",
          "name": "",
          "type": "address"
        }
      ],
      "name": "addressToAmountFunded",
      "outputs": [
        {
          "internalType": "uint256",
          "name": "",
          "type": "uint256"
        }
      ],
      "stateMutability": "view",
      "type": "function"
    },
    {
      "inputs": [],
      "name": "fund",
      "outputs": [],
      "stateMutability": "payable",
      "type": "function"
    },
    {
      "inputs": [
        {
          "internalType": "uint256",
          "name": "",
          "type": "uint256"
        }
      ],
      "name": "funders",
      "outputs": [
        {
          "internalType": "address",
          "name": "",
          "type": "address"
        }
      ],
      "stateMutability": "view",
      "type": "function"
    },
    {
      "inputs": [],
      "name": "minimumUSD",
      "outputs": [
        {
          "internalType": "uint256",
          "name": "",
          "type": "uint256"
        }
      ],
      "stateMutability": "view",
      "type": "function"
    },
    {
      "inputs": [],
      "name": "priceFeed",
      "outputs": [
        {
          "internalType": "contract AggregatorV3Interface",
          "name": "",
          "type": "address"
        }
      ],
      "stateMutability": "view",
      "type": "function"
    },
    {
      "inputs": [],
      "name": "withdraw",
      "outputs": [],
      "stateMutability": "nonpayable",
      "type": "function"
    },
    {
      "stateMutability": "payable",
      "type": "receive"
    }
  ],
  "transactionHash": "0xec69dc91b7199c90ed93f23d9118a494e745f9eec0d6f627949b148e7a9318a8",
  "args": [
    "0x694AA1769357215DE4FAC081bf1f309aDC325306"
  ],
  "numDeployments": 1,
  "solcInputHash": "455cf55a83041361b48e6c507da861fd",
  "bytecode": "0x60a0604052348015600f57600080fd5b506040516106d73803806106d7833981016040819052602c916054565b33608052600280546001600160a01b0319166001600160a01b03929092169190911790556082565b600060208284031215606557600080fd5b81516001600160a01b0381168114607b57600080fd5b9392505050565b60805161063a61009d60003960006101ff015261063a6000f3fe6080604052600436106100595760003560e01c80633430a88c146100705780633ccfd60b146100a05780633e47d6f3146100b5578063741bef1a146100e2578063b60d428814610068578063dc0d3dff1461011a57610068565b366100685761006661013a565b005b61006661013a565b34801561007c57600080fd5b5061008d6802b5e3af16b188000081565b6040519081526020015b60405180910390f35b3480156100ac57600080fd5b506100666101f4565b3480156100c157600080fd5b5061008d6100d03660046104bc565b60016020526000908152604090205481565b3480156100ee57600080fd5b50600254610102906001600160a01b031681565b6040516001600160a01b039091168152602001610097565b34801561012657600080fd5b506101026101353660046104e5565b61035d565b6002546802b5e3af16b18800009061015c9034906001600160a01b0316610387565b10156101a45760405162461bcd60e51b8152602060048201526012602482015271088d2c8dc4ee840e6cadcc840cadcdeeaced60731b60448201526064015b60405180910390fd5b60008054600181810183557f290decd9548b62a8d60345a988386fc84ba6bc95484008f6362f93160ef3e56390910180546001600160a01b03191633908117909155825260205260409020349055565b336001600160a01b037f000000000000000000000000000000000000000000000000000000000000000016146102625760405162461bcd60e51b815260206004820152601360248201527229b2b73232b91034b9903737ba1037bbb732b960691b604482015260640161019b565b60005b6000548110156102b5576000808281548110610283576102836104fe565b60009182526020808320909101546001600160a01b031682526001908190526040822091909155919091019050610265565b50604080516000808252602082019283905290516102d39290610442565b50604051600090339047908381818185875af1925050503d8060008114610316576040519150601f19603f3d011682016040523d82523d6000602084013e61031b565b606091505b505090508061035a5760405162461bcd60e51b815260206004820152600b60248201526a10d85b1b0819985a5b195960aa1b604482015260640161019b565b50565b6000818154811061036d57600080fd5b6000918252602090912001546001600160a01b0316905081565b600080610393836103bf565b90506000670de0b6b3a76400006103aa868461052a565b6103b49190610541565b925050505b92915050565b600080826001600160a01b031663feaf968c6040518163ffffffff1660e01b815260040160a060405180830381865afa158015610400573d6000803e3d6000fd5b505050506040513d601f19601f820116820180604052508101906104249190610582565b505050915050806402540be40061043b91906105d4565b9392505050565b828054828255906000526020600020908101928215610497579160200282015b8281111561049757825182546001600160a01b0319166001600160a01b03909116178255602090920191600190910190610462565b506104a39291506104a7565b5090565b5b808211156104a357600081556001016104a8565b6000602082840312156104ce57600080fd5b81356001600160a01b038116811461043b57600080fd5b6000602082840312156104f757600080fd5b5035919050565b634e487b7160e01b600052603260045260246000fd5b634e487b7160e01b600052601160045260246000fd5b80820281158282048414176103b9576103b9610514565b60008261055e57634e487b7160e01b600052601260045260246000fd5b500490565b805169ffffffffffffffffffff8116811461057d57600080fd5b919050565b600080600080600060a0868803121561059a57600080fd5b6105a386610563565b602087015160408801516060890151929750909550935091506105c860808701610563565b90509295509295909350565b80820260008212600160ff1b841416156105f0576105f0610514565b81810583148215176103b9576103b961051456fea264697066735822122024ddf78a65edb7ab5558e44884d010aeeb284c03f33676232412668ec202df5d64736f6c634300081c0033",
  "devdoc": {
    "kind": "dev",
    "methods": {},
    "version": 1
  },
  "userdoc": {
    "kind": "user",
    "methods": {},
    "version": 1
  },
  "storageLayout": {
    "storage": [
      {
        "astId": 360,
        "contract": "contracts/FundMe.sol:FundMe",
        "label": "funders",
        "offset": 0,
        "slot": "0",
        "type": "t_array(t_address)dyn_storage"
      },
      {
        "astId": 364,
        "contract": "contracts/FundMe.sol:FundMe",
        "label": "addressToAmountFunded",
        "offset": 0,
        "slot": "1",
        "type": "t_mapping(t_address,t_uint256)"
      },
      {
        "astId": 374,
        "contract": "contracts/FundMe.sol:FundMe",
        "label": "priceFeed",
        "offset": 0,
        "slot": "2",
        "type": "t_contract(AggregatorV3Interface)104"
      }
    ],
    "types": {
      "t_address": {
        "encoding": "inplace",
        "label": "address",
        "numberOfBytes": "20"
      },
      "t_array(t_address)dyn_storage": {
        "base": "t_address",
        "encoding": "dynamic_array",
        "label": "address[]",
        "numberOfBytes": "32"
      },
      "t_contract(AggregatorV3Interface)104": {
        "encoding": "inplace",
        "label": "contract AggregatorV3Interface",
        "numberOfBytes": "20"
      },
      "t_mapping(t_address,t_uint256)": {
        "encoding": "mapping",
        "key": "t_address",
        "label": "mapping(address => uint256)",
        "numberOfBytes": "32",
        "value": "t_uint256"
      },
      "t_uint256": {
        "encoding": "inplace",
        "label": "uint256",
        "numberOfBytes": "32"
      }
    }
  }
}